{
  "_format": "hh-sol-artifact-1",
  "contractName": "ZamaMaxAdapter",
  "sourceName": "contracts/adapters/ZamaMaxAdapter.sol",
  "abi": [
    {
      "inputs": [
        {
          "internalType": "uint256",
          "name": "maxInputs",
          "type": "uint256"
        }
      ],
      "stateMutability": "nonpayable",
      "type": "constructor"
    },
    {
      "inputs": [],
      "name": "CiphertextLimitExceeded",
      "type": "error"
    },
    {
      "inputs": [],
      "name": "NoCiphertextsProvided",
      "type": "error"
    },
    {
      "inputs": [],
      "name": "ZamaProtocolUnsupported",
      "type": "error"
    },
    {
      "inputs": [],
      "name": "confidentialProtocolId",
      "outputs": [
        {
          "internalType": "uint256",
          "name": "",
          "type": "uint256"
        }
      ],
      "stateMutability": "view",
      "type": "function"
    },
    {
      "inputs": [
        {
          "internalType": "bytes32[]",
          "name": "ciphertextHandles",
          "type": "bytes32[]"
        }
      ],
      "name": "fhe_max",
      "outputs": [
        {
          "internalType": "bytes32",
          "name": "winnerHandle",
          "type": "bytes32"
        }
      ],
      "stateMutability": "nonpayable",
      "type": "function"
    },
    {
      "inputs": [],
      "name": "maxCiphertexts",
      "outputs": [
        {
          "internalType": "uint256",
          "name": "",
          "type": "uint256"
        }
      ],
      "stateMutability": "view",
      "type": "function"
    }
  ],
  "bytecode": "0x60a060405234801561000f575f80fd5b506040516108c03803806108c083398101604081905261002e91610259565b6100e26100396100ea565b80517f9e7b61f58c47dc699ac88507c4f5bb9f121c03808c5676a8078fe583e464970080546001600160a01b03199081166001600160a01b039384161790915560208301517f9e7b61f58c47dc699ac88507c4f5bb9f121c03808c5676a8078fe583e46497018054831691841691909117905560408301517f9e7b61f58c47dc699ac88507c4f5bb9f121c03808c5676a8078fe583e46497028054909216921691909117905550565b608052610270565b604080516060810182525f808252602082018190529181019190915246600103610143575060408051606080820183525f8083526020808401829052928401819052835191820184528082529181018290529182015290565b4662aa36a7036101c2575060408051606080820183525f8083526020808401829052928401528251908101835273f0ffdc93b7e186bc2f8cb3daa75d86d1930a433d81527392c920834ec8941d2c77d188936e1f7a6f49c1279181019190915273be0e383937d564d7ff0bc3b46c51f0bf8d5c311a9181019190915290565b46617a6903610240575060408051606080820183525f808352602080840182905292840152825190810183527350157cffd6bbfa2dece204a89ec419c23ef5755d815273e3a9105a3a932253a70f126eb1e3b589c643dd249181019190915273be0e383937d564d7ff0bc3b46c51f0bf8d5c311a9181019190915290565b6040516373cac13b60e01b815260040160405180910390fd5b5f60208284031215610269575f80fd5b5051919050565b60805161062d6102935f395f818160750152818160c9015260f3015261062d5ff3fe608060405234801561000f575f80fd5b506004361061003f575f3560e01c80638927b03014610043578063945703331461005d578063c7262a5914610070575b5f80fd5b61004b610097565b60405190815260200160405180910390f35b61004b61006b36600461050d565b6100a5565b61004b7f000000000000000000000000000000000000000000000000000000000000000081565b5f6100a06101b1565b905090565b5f818082036100c75760405163dd9a811d60e01b815260040160405180910390fd5b7f00000000000000000000000000000000000000000000000000000000000000001580159061011557507f000000000000000000000000000000000000000000000000000000000000000081115b156101335760405163071ac48360e21b815260040160405180910390fd5b5f84845f8181106101465761014661057c565b9050602002013590505f600190505b8281101561019d575f8686838181106101705761017061057c565b9050602002013590505f61018482856101e5565b905061019181838661021a565b93505050600101610155565b506101a88133610261565b50949350505050565b5f466001036101c05750600190565b4662aa36a7036101d1575061271190565b46617a69036101e057505f1990565b505f90565b5f826101f7576101f45f610273565b92505b81610208576102055f610273565b91505b61021383835f61028f565b9392505050565b5f8361022c576102295f610344565b93505b8261023d5761023a5f610273565b92505b8161024e5761024b5f610273565b91505b61025984848461035f565b949350505050565b5f61026c83836103f5565b5090919050565b5f6102898267ffffffffffffffff16600561046b565b92915050565b5f8082156102a25750600160f81b6102a5565b505f5b5f5f805160206105d883398151915260018101546040516385362ee760e01b815260048101899052602481018890526001600160f81b0319851660448201529192506001600160a01b0316906385362ee7906064016020604051808303815f875af1158015610316573d5f803e3d5ffd5b505050506040513d601f19601f8201168201806040525081019061033a9190610590565b9695505050505050565b5f61028982610353575f610356565b60015b60ff165f61046b565b5f805f805160206105d88339815191526001810154604051637702dcff60e01b81526004810188905260248101879052604481018690529192506001600160a01b031690637702dcff906064016020604051808303815f875af11580156103c8573d5f803e3d5ffd5b505050506040513d601f19601f820116820180604052508101906103ec9190610590565b95945050505050565b5f5f805160206105d88339815191528054604051635ca4b5b160e11b8152600481018690526001600160a01b03858116602483015292935091169063b9496b62906044015f604051808303815f87803b158015610450575f80fd5b505af1158015610462573d5f803e3d5ffd5b50505050505050565b7f9e7b61f58c47dc699ac88507c4f5bb9f121c03808c5676a8078fe583e464970154604051639cd07acb60e01b81525f915f805160206105d8833981519152916001600160a01b0390911690639cd07acb906104cd90879087906004016105a7565b6020604051808303815f875af11580156104e9573d5f803e3d5ffd5b505050506040513d601f19601f820116820180604052508101906102599190610590565b5f806020838503121561051e575f80fd5b823567ffffffffffffffff80821115610535575f80fd5b818501915085601f830112610548575f80fd5b813581811115610556575f80fd5b8660208260051b850101111561056a575f80fd5b60209290920196919550909350505050565b634e487b7160e01b5f52603260045260245ffd5b5f602082840312156105a0575f80fd5b5051919050565b82815260408101605483106105ca57634e487b7160e01b5f52602160045260245ffd5b826020830152939250505056fe9e7b61f58c47dc699ac88507c4f5bb9f121c03808c5676a8078fe583e4649700a2646970667358221220f28fb83f5a243425e808d0369846bea906ce24386b5b6b451356e27820c1ea7d64736f6c63430008180033",
  "linkReferences": {},
  "deployedLinkReferences": {}
}