{
  "address": "0x72692583948DAC795a0C7B54177D040a4C2fc152",
  "abi": [
    {
      "inputs": [
        {
          "internalType": "address",
          "name": "managerAddress",
          "type": "address"
        }
      ],
      "stateMutability": "nonpayable",
      "type": "constructor"
    },
    {
      "inputs": [],
      "name": "AdapterNotSet",
      "type": "error"
    },
    {
      "inputs": [],
      "name": "AlreadyFinalized",
      "type": "error"
    },
    {
      "inputs": [],
      "name": "AuctionActive",
      "type": "error"
    },
    {
      "inputs": [],
      "name": "AuctionClosed",
      "type": "error"
    },
    {
      "inputs": [],
      "name": "AuctionNotFound",
      "type": "error"
    },
    {
      "inputs": [],
      "name": "BidLimitReached",
      "type": "error"
    },
    {
      "inputs": [],
      "name": "BidNotFound",
      "type": "error"
    },
    {
      "inputs": [],
      "name": "DepositTooLow",
      "type": "error"
    },
    {
      "inputs": [],
      "name": "InvalidCiphertext",
      "type": "error"
    },
    {
      "inputs": [],
      "name": "InvalidWindow",
      "type": "error"
    },
    {
      "inputs": [],
      "name": "NotManager",
      "type": "error"
    },
    {
      "inputs": [],
      "name": "NotSeller",
      "type": "error"
    },
    {
      "inputs": [],
      "name": "ZamaProtocolUnsupported",
      "type": "error"
    },
    {
      "anonymous": false,
      "inputs": [
        {
          "indexed": true,
          "internalType": "uint256",
          "name": "auctionId",
          "type": "uint256"
        },
        {
          "indexed": true,
          "internalType": "address",
          "name": "seller",
          "type": "address"
        }
      ],
      "name": "AuctionConfigured",
      "type": "event"
    },
    {
      "anonymous": false,
      "inputs": [
        {
          "indexed": true,
          "internalType": "uint256",
          "name": "auctionId",
          "type": "uint256"
        },
        {
          "indexed": false,
          "internalType": "bytes",
          "name": "winnerCiphertext",
          "type": "bytes"
        }
      ],
      "name": "AuctionFinalized",
      "type": "event"
    },
    {
      "anonymous": false,
      "inputs": [
        {
          "indexed": true,
          "internalType": "uint256",
          "name": "auctionId",
          "type": "uint256"
        },
        {
          "indexed": true,
          "internalType": "uint256",
          "name": "bidIndex",
          "type": "uint256"
        },
        {
          "indexed": true,
          "internalType": "address",
          "name": "bidder",
          "type": "address"
        }
      ],
      "name": "EncryptedBidSubmitted",
      "type": "event"
    },
    {
      "anonymous": false,
      "inputs": [
        {
          "indexed": true,
          "internalType": "address",
          "name": "newManager",
          "type": "address"
        }
      ],
      "name": "ManagerUpdated",
      "type": "event"
    },
    {
      "anonymous": false,
      "inputs": [
        {
          "indexed": true,
          "internalType": "uint256",
          "name": "auctionId",
          "type": "uint256"
        },
        {
          "indexed": false,
          "internalType": "address",
          "name": "winner",
          "type": "address"
        },
        {
          "indexed": false,
          "internalType": "uint256",
          "name": "amountWei",
          "type": "uint256"
        }
      ],
      "name": "WinnerRevealed",
      "type": "event"
    },
    {
      "inputs": [
        {
          "internalType": "uint256",
          "name": "",
          "type": "uint256"
        },
        {
          "internalType": "uint256",
          "name": "",
          "type": "uint256"
        }
      ],
      "name": "auctionBids",
      "outputs": [
        {
          "internalType": "euint64",
          "name": "ciphertext",
          "type": "bytes32"
        },
        {
          "internalType": "address",
          "name": "bidder",
          "type": "address"
        },
        {
          "internalType": "bytes32",
          "name": "commitment",
          "type": "bytes32"
        },
        {
          "internalType": "uint256",
          "name": "deposit",
          "type": "uint256"
        }
      ],
      "stateMutability": "view",
      "type": "function"
    },
    {
      "inputs": [
        {
          "internalType": "uint256",
          "name": "",
          "type": "uint256"
        }
      ],
      "name": "auctions",
      "outputs": [
        {
          "internalType": "address",
          "name": "seller",
          "type": "address"
        },
        {
          "internalType": "address",
          "name": "nftContract",
          "type": "address"
        },
        {
          "internalType": "uint256",
          "name": "tokenId",
          "type": "uint256"
        },
        {
          "internalType": "uint256",
          "name": "startTime",
          "type": "uint256"
        },
        {
          "internalType": "uint256",
          "name": "endTime",
          "type": "uint256"
        },
        {
          "internalType": "uint8",
          "name": "maxBidders",
          "type": "uint8"
        },
        {
          "internalType": "uint256",
          "name": "minDepositWei",
          "type": "uint256"
        },
        {
          "internalType": "bool",
          "name": "finalized",
          "type": "bool"
        },
        {
          "internalType": "bytes",
          "name": "winnerCiphertext",
          "type": "bytes"
        },
        {
          "internalType": "address",
          "name": "winner",
          "type": "address"
        },
        {
          "internalType": "contract IFHE",
          "name": "fheAdapter",
          "type": "address"
        }
      ],
      "stateMutability": "view",
      "type": "function"
    },
    {
      "inputs": [],
      "name": "confidentialProtocolId",
      "outputs": [
        {
          "internalType": "uint256",
          "name": "",
          "type": "uint256"
        }
      ],
      "stateMutability": "view",
      "type": "function"
    },
    {
      "inputs": [
        {
          "internalType": "address",
          "name": "seller",
          "type": "address"
        },
        {
          "internalType": "address",
          "name": "nftContract",
          "type": "address"
        },
        {
          "internalType": "uint256",
          "name": "tokenId",
          "type": "uint256"
        },
        {
          "internalType": "uint256",
          "name": "startTime",
          "type": "uint256"
        },
        {
          "internalType": "uint256",
          "name": "endTime",
          "type": "uint256"
        },
        {
          "internalType": "uint8",
          "name": "maxBidders",
          "type": "uint8"
        },
        {
          "internalType": "uint256",
          "name": "minDepositWei",
          "type": "uint256"
        }
      ],
      "name": "createAuction",
      "outputs": [
        {
          "internalType": "uint256",
          "name": "",
          "type": "uint256"
        }
      ],
      "stateMutability": "nonpayable",
      "type": "function"
    },
    {
      "inputs": [],
      "name": "defaultAdapter",
      "outputs": [
        {
          "internalType": "contract IFHE",
          "name": "",
          "type": "address"
        }
      ],
      "stateMutability": "view",
      "type": "function"
    },
    {
      "inputs": [
        {
          "internalType": "uint256",
          "name": "auctionId",
          "type": "uint256"
        }
      ],
      "name": "finalizeAuctionWithAdapter",
      "outputs": [],
      "stateMutability": "nonpayable",
      "type": "function"
    },
    {
      "inputs": [
        {
          "internalType": "uint256",
          "name": "auctionId",
          "type": "uint256"
        },
        {
          "internalType": "uint256",
          "name": "index",
          "type": "uint256"
        }
      ],
      "name": "getBidCiphertext",
      "outputs": [
        {
          "internalType": "bytes32",
          "name": "",
          "type": "bytes32"
        }
      ],
      "stateMutability": "view",
      "type": "function"
    },
    {
      "inputs": [
        {
          "internalType": "uint256",
          "name": "auctionId",
          "type": "uint256"
        }
      ],
      "name": "getBidCount",
      "outputs": [
        {
          "internalType": "uint256",
          "name": "",
          "type": "uint256"
        }
      ],
      "stateMutability": "view",
      "type": "function"
    },
    {
      "inputs": [
        {
          "internalType": "uint256",
          "name": "auctionId",
          "type": "uint256"
        }
      ],
      "name": "getWinnerCiphertext",
      "outputs": [
        {
          "internalType": "bytes",
          "name": "",
          "type": "bytes"
        }
      ],
      "stateMutability": "view",
      "type": "function"
    },
    {
      "inputs": [],
      "name": "manager",
      "outputs": [
        {
          "internalType": "address",
          "name": "",
          "type": "address"
        }
      ],
      "stateMutability": "view",
      "type": "function"
    },
    {
      "inputs": [],
      "name": "nextAuctionId",
      "outputs": [
        {
          "internalType": "uint256",
          "name": "",
          "type": "uint256"
        }
      ],
      "stateMutability": "view",
      "type": "function"
    },
    {
      "inputs": [
        {
          "internalType": "uint256",
          "name": "auctionId",
          "type": "uint256"
        },
        {
          "internalType": "address",
          "name": "winner",
          "type": "address"
        },
        {
          "internalType": "uint256",
          "name": "amountWei",
          "type": "uint256"
        }
      ],
      "name": "revealWinner",
      "outputs": [],
      "stateMutability": "nonpayable",
      "type": "function"
    },
    {
      "inputs": [
        {
          "internalType": "address",
          "name": "adapter",
          "type": "address"
        }
      ],
      "name": "setDefaultAdapter",
      "outputs": [],
      "stateMutability": "nonpayable",
      "type": "function"
    },
    {
      "inputs": [
        {
          "internalType": "uint256",
          "name": "auctionId",
          "type": "uint256"
        },
        {
          "internalType": "address",
          "name": "adapter",
          "type": "address"
        }
      ],
      "name": "setFHEAdapter",
      "outputs": [],
      "stateMutability": "nonpayable",
      "type": "function"
    },
    {
      "inputs": [
        {
          "internalType": "address",
          "name": "newManager",
          "type": "address"
        }
      ],
      "name": "setManager",
      "outputs": [],
      "stateMutability": "nonpayable",
      "type": "function"
    },
    {
      "inputs": [
        {
          "internalType": "uint256",
          "name": "auctionId",
          "type": "uint256"
        },
        {
          "internalType": "bytes32",
          "name": "ciphertextHandle",
          "type": "bytes32"
        },
        {
          "internalType": "bytes",
          "name": "inputProof",
          "type": "bytes"
        },
        {
          "internalType": "bytes32",
          "name": "commitment",
          "type": "bytes32"
        }
      ],
      "name": "submitEncryptedBid",
      "outputs": [],
      "stateMutability": "payable",
      "type": "function"
    },
    {
      "inputs": [
        {
          "internalType": "uint256",
          "name": "auctionId",
          "type": "uint256"
        },
        {
          "internalType": "bytes",
          "name": "winnerCiphertext",
          "type": "bytes"
        }
      ],
      "name": "submitFinalizedWinner",
      "outputs": [],
      "stateMutability": "nonpayable",
      "type": "function"
    }
  ],
  "transactionHash": "0x4c4fa5d777bf8e61578be6120c87f98e5201ea0b9b74eb89637bd969956dc530",
  "args": [
    "0xb2760A851d00905D0a33bb8d938908e2715cB192"
  ],
  "numDeployments": 3,
  "solcInputHash": "dd3e70a0cca3b471da76c06160746cba",
  "bytecode": "0x60806040526001805534801562000014575f80fd5b5060405162001bb038038062001bb083398101604081905262000037916200029f565b620000ee620000456200012d565b80517f9e7b61f58c47dc699ac88507c4f5bb9f121c03808c5676a8078fe583e464970080546001600160a01b03199081166001600160a01b039384161790915560208301517f9e7b61f58c47dc699ac88507c4f5bb9f121c03808c5676a8078fe583e46497018054831691841691909117905560408301517f9e7b61f58c47dc699ac88507c4f5bb9f121c03808c5676a8078fe583e46497028054909216921691909117905550565b6001600160a01b0381161562000105578062000107565b335b5f80546001600160a01b0319166001600160a01b039290921691909117905550620002ce565b604080516060810182525f80825260208201819052918101919091524660010362000187575060408051606080820183525f8083526020808401829052928401819052835191820184528082529181018290529182015290565b4662aa36a70362000207575060408051606080820183525f8083526020808401829052928401528251908101835273f0ffdc93b7e186bc2f8cb3daa75d86d1930a433d81527392c920834ec8941d2c77d188936e1f7a6f49c1279181019190915273be0e383937d564d7ff0bc3b46c51f0bf8d5c311a9181019190915290565b46617a690362000286575060408051606080820183525f8083526020808401829052928401528251908101835273f0ffdc93b7e186bc2f8cb3daa75d86d1930a433d81527392c920834ec8941d2c77d188936e1f7a6f49c1279181019190915273be0e383937d564d7ff0bc3b46c51f0bf8d5c311a9181019190915290565b6040516373cac13b60e01b815260040160405180910390fd5b5f60208284031215620002b0575f80fd5b81516001600160a01b0381168114620002c7575f80fd5b9392505050565b6118d480620002dc5f395ff3fe6080604052600436106100fa575f3560e01c80637ac14610116100925780639cf133f1116100625780639cf133f1146102d2578063ad48130d146102e5578063d0ebdbe714610304578063e6ae505014610323578063fc5284821461034f575f80fd5b80637ac146101461026157806382257e3f146102805780638437dd291461029f5780638927b030146102be575f80fd5b80635f93de49116100cd5780635f93de49146101bd57806363713eb314610204578063734e6cad14610223578063744d341114610242575f80fd5b806302b99be4146100fe5780631c85d15d14610130578063481c6a7514610151578063571a26a014610187575b5f80fd5b348015610109575f80fd5b5061011d610118366004611208565b610364565b6040519081526020015b60405180910390f35b34801561013b575f80fd5b5061014f61014a366004611276565b610545565b005b34801561015c575f80fd5b505f5461016f906001600160a01b031681565b6040516001600160a01b039091168152602001610127565b348015610192575f80fd5b506101a66101a13660046112a8565b610601565b6040516101279b9a99989796959493929190611302565b3480156101c8575f80fd5b506101dc6101d736600461137c565b610702565b604080519485526001600160a01b039093166020850152918301526060820152608001610127565b34801561020f575f80fd5b5061014f61021e3660046113e1565b61074d565b34801561022e575f80fd5b5060045461016f906001600160a01b031681565b34801561024d575f80fd5b5061011d61025c3660046112a8565b610840565b34801561026c575f80fd5b5061011d61027b36600461137c565b610888565b34801561028b575f80fd5b5061014f61029a366004611429565b610922565b3480156102aa575f80fd5b5061014f6102b93660046112a8565b61096e565b3480156102c9575f80fd5b5061011d610be0565b61014f6102e0366004611442565b610bee565b3480156102f0575f80fd5b5061014f6102ff366004611498565b610ddf565b34801561030f575f80fd5b5061014f61031e366004611429565b610ead565b34801561032e575f80fd5b5061034261033d3660046112a8565b610f1e565b60405161012791906114c2565b34801561035a575f80fd5b5061011d60015481565b5f80546001600160a01b0316331461038f5760405163607e454560e11b815260040160405180910390fd5b8385106103af5760405163392334ed60e01b815260040160405180910390fd5b600180545f91826103bf836114e8565b9091555060408051610160810182526001600160a01b03808d1682528b811660208084019182528385018d8152606085018d8152608086018d815260ff808e1660a0890190815260c089018e81525f60e08b018181528c51808a018e528281526101008d019081526101208d01839052600480548d166101408f01528f845260029a8b90529d9092208c518154908d166001600160a01b03199182161782559a5160018201805491909d169b169a909a17909a5595519688019690965592516003870155905197850197909755516005840180549190971660ff19918216179096559051600683015591516007820180549115159190951617909355519293509160088201906104cf9082611595565b506101208201516009820180546001600160a01b03199081166001600160a01b039384161790915561014090930151600a90920180549093169116179055604051339082907f71b5179c31c446cc17b6f860b4642cc7255110f508db865652aa9d08bef085ff905f90a398975050505050505050565b5f83815260026020526040902080546001600160a01b031661057a576040516307145c5f60e11b815260040160405180910390fd5b600781015460ff1661059f576040516359bfb80360e11b815260040160405180910390fd5b6009810180546001600160a01b0319166001600160a01b038516908117909155604080519182526020820184905285917f992535e802e8123e9eb931d979647edc6493f77f265deea35426b61dde47f78b91015b60405180910390a250505050565b600260208190525f91825260409091208054600182015492820154600383015460048401546005850154600686015460078701546008880180546001600160a01b039889169a9098169896979596949560ff94851695939492909216929161066890611514565b80601f016020809104026020016040519081016040528092919081815260200182805461069490611514565b80156106df5780601f106106b6576101008083540402835291602001916106df565b820191905f5260205f20905b8154815290600101906020018083116106c257829003601f168201915b505050506009830154600a9093015491926001600160a01b03908116921690508b565b6003602052815f5260405f20818154811061071b575f80fd5b5f91825260209091206004909102018054600182015460028301546003909301549194506001600160a01b0316925084565b5f83815260026020526040902080546001600160a01b0316610782576040516307145c5f60e11b815260040160405180910390fd5b806004015442116107a6576040516359bfb80360e11b815260040160405180910390fd5b600781015460ff16156107cc5760405163475a253560e01b815260040160405180910390fd5b602082146107ed57604051634c4d29cd60e11b815260040160405180910390fd5b600881016107fc838583611655565b5060078101805460ff1916600117905560405184907fafcad72499f0ef2939e2cda92ec941e5177084b2479ff274455187b7ec5fdfa2906105f3908690869061170f565b5f81815260026020526040812080546001600160a01b0316610875576040516307145c5f60e11b815260040160405180910390fd5b50505f9081526003602052604090205490565b5f82815260026020526040812080546001600160a01b03166108bd576040516307145c5f60e11b815260040160405180910390fd5b5f8481526003602052604090205483106108ea576040516307e0eec960e31b815260040160405180910390fd5b5f8481526003602052604090208054849081106109095761090961173d565b905f5260205f2090600402015f01549150505b92915050565b5f546001600160a01b0316331461094c5760405163607e454560e11b815260040160405180910390fd5b600480546001600160a01b0319166001600160a01b0392909216919091179055565b5f81815260026020526040902080546001600160a01b03166109a3576040516307145c5f60e11b815260040160405180910390fd5b806004015442116109c7576040516359bfb80360e11b815260040160405180910390fd5b600781015460ff16156109ed5760405163475a253560e01b815260040160405180910390fd5b600a8101546001600160a01b0316610a1857604051635048c2af60e11b815260040160405180910390fd5b5f8281526003602052604081205467ffffffffffffffff811115610a3e57610a3e611500565b604051908082528060200260200182016040528015610a67578160200160208202803683370190505b5090505f5b5f84815260036020526040902054811015610af4575f848152600360205260408120805483908110610aa057610aa061173d565b5f918252602090912060049091020154600a850154909150610acc9082906001600160a01b0316610fea565b5080838381518110610ae057610ae061173d565b602090810291909101015250600101610a6c565b50600a820154604051639457033360e01b81525f916001600160a01b031690639457033390610b27908590600401611751565b6020604051808303815f875af1158015610b43573d5f803e3d5ffd5b505050506040513d601f19601f82011682018060405250810190610b679190611794565b905080604051602001610b7c91815260200190565b604051602081830303815290604052836008019081610b9b9190611595565b5060078301805460ff1916600117905560405184907fafcad72499f0ef2939e2cda92ec941e5177084b2479ff274455187b7ec5fdfa2906105f39060088701906117ab565b5f610be9610ffc565b905090565b5f85815260026020526040902080546001600160a01b0316610c23576040516307145c5f60e11b815260040160405180910390fd5b8060030154421015610c48576040516359bfb80360e11b815260040160405180910390fd5b8060040154421115610c6d576040516336b6b46d60e01b815260040160405180910390fd5b60058101545f8781526003602052604090205460ff90911611610ca357604051631047a77760e11b815260040160405180910390fd5b8060060154341015610cc857604051632b7786bd60e21b815260040160405180910390fd5b5f8590505f610d0c8287878080601f0160208091040260200160405190810160405280939291908181526020018383808284375f9201919091525061103092505050565b9050610d188130610fea565b505f8881526003602081815260408084208151608081018352868152338185018181529382018b81523460608401908152845460018082018755868b52888b2095516004909202909501908155955186850180546001600160a01b0319166001600160a01b03909216919091179055905160028601555193860193909355948d90529290915290549091610dab91611835565b6040518a907f4506ba9f0ddee0498eba47c77f72bbb49b911d70c03b36879667060a6c3d0b9e905f90a45050505050505050565b5f82815260026020526040902080546001600160a01b0316610e14576040516307145c5f60e11b815260040160405180910390fd5b80546001600160a01b03163314610e3e57604051635ec8235160e01b815260040160405180910390fd5b600a810180546001600160a01b0319166001600160a01b0384161790555f838152600360205260408120905b8154811015610ea657610e9d828281548110610e8857610e8861173d565b905f5260205f2090600402015f015485610fea565b50600101610e6a565b5050505050565b5f546001600160a01b03163314610ed75760405163607e454560e11b815260040160405180910390fd5b5f80546001600160a01b0319166001600160a01b038316908117825560405190917f2c1c11af44aa5608f1dca38c00275c30ea091e02417d36e70e9a1538689c433d91a250565b5f8181526002602052604090208054606091906001600160a01b0316610f57576040516307145c5f60e11b815260040160405180910390fd5b806008018054610f6690611514565b80601f0160208091040260200160405190810160405280929190818152602001828054610f9290611514565b8015610fdd5780601f10610fb457610100808354040283529160200191610fdd565b820191905f5260205f20905b815481529060010190602001808311610fc057829003601f168201915b5050505050915050919050565b5f610ff58383611044565b5090919050565b5f4660010361100b5750600190565b4662aa36a70361101c575061271190565b46617a690361102b57505f1990565b505f90565b5f61103d838360056110cd565b9392505050565b5f7f9e7b61f58c47dc699ac88507c4f5bb9f121c03808c5676a8078fe583e46497008054604051635ca4b5b160e11b8152600481018690526001600160a01b03858116602483015292935091169063b9496b62906044015f604051808303815f87803b1580156110b2575f80fd5b505af11580156110c4573d5f803e3d5ffd5b50505050505050565b7f9e7b61f58c47dc699ac88507c4f5bb9f121c03808c5676a8078fe583e46497015460405163045fc19560e11b81525f917f9e7b61f58c47dc699ac88507c4f5bb9f121c03808c5676a8078fe583e4649700916001600160a01b03909116906308bf832a90611146908890339089908990600401611848565b6020604051808303815f875af1158015611162573d5f803e3d5ffd5b505050506040513d601f19601f820116820180604052508101906111869190611794565b8154604051630f8e573b60e21b8152600481018390523360248201529193506001600160a01b031690633e395cec906044015f604051808303815f87803b1580156111cf575f80fd5b505af11580156111e1573d5f803e3d5ffd5b50505050509392505050565b80356001600160a01b0381168114611203575f80fd5b919050565b5f805f805f805f60e0888a03121561121e575f80fd5b611227886111ed565b9650611235602089016111ed565b955060408801359450606088013593506080880135925060a088013560ff8116811461125f575f80fd5b8092505060c0880135905092959891949750929550565b5f805f60608486031215611288575f80fd5b83359250611298602085016111ed565b9150604084013590509250925092565b5f602082840312156112b8575f80fd5b5035919050565b5f81518084525f5b818110156112e3576020818501810151868301820152016112c7565b505f602082860101526020601f19601f83011685010191505092915050565b5f61016060018060a01b03808f168452808e1660208501528c60408501528b60608501528a608085015260ff8a1660a08501528860c085015287151560e085015281610100850152611356828501886112bf565b925080861661012085015280851661014085015250509c9b505050505050505050505050565b5f806040838503121561138d575f80fd5b50508035926020909101359150565b5f8083601f8401126113ac575f80fd5b50813567ffffffffffffffff8111156113c3575f80fd5b6020830191508360208285010111156113da575f80fd5b9250929050565b5f805f604084860312156113f3575f80fd5b83359250602084013567ffffffffffffffff811115611410575f80fd5b61141c8682870161139c565b9497909650939450505050565b5f60208284031215611439575f80fd5b61103d826111ed565b5f805f805f60808688031215611456575f80fd5b8535945060208601359350604086013567ffffffffffffffff81111561147a575f80fd5b6114868882890161139c565b96999598509660600135949350505050565b5f80604083850312156114a9575f80fd5b823591506114b9602084016111ed565b90509250929050565b602081525f61103d60208301846112bf565b634e487b7160e01b5f52601160045260245ffd5b5f600182016114f9576114f96114d4565b5060010190565b634e487b7160e01b5f52604160045260245ffd5b600181811c9082168061152857607f821691505b60208210810361154657634e487b7160e01b5f52602260045260245ffd5b50919050565b601f82111561159057805f5260205f20601f840160051c810160208510156115715750805b601f840160051c820191505b81811015610ea6575f815560010161157d565b505050565b815167ffffffffffffffff8111156115af576115af611500565b6115c3816115bd8454611514565b8461154c565b602080601f8311600181146115f6575f84156115df5750858301515b5f19600386901b1c1916600185901b17855561164d565b5f85815260208120601f198616915b8281101561162457888601518255948401946001909101908401611605565b508582101561164157878501515f19600388901b60f8161c191681555b505060018460011b0185555b505050505050565b67ffffffffffffffff83111561166d5761166d611500565b6116818361167b8354611514565b8361154c565b5f601f8411600181146116b2575f851561169b5750838201355b5f19600387901b1c1916600186901b178355610ea6565b5f83815260208120601f198716915b828110156116e157868501358255602094850194600190920191016116c1565b50868210156116fd575f1960f88860031b161c19848701351681555b505060018560011b0183555050505050565b60208152816020820152818360408301375f818301604090810191909152601f909201601f19160101919050565b634e487b7160e01b5f52603260045260245ffd5b602080825282518282018190525f9190848201906040850190845b818110156117885783518352928401929184019160010161176c565b50909695505050505050565b5f602082840312156117a4575f80fd5b5051919050565b5f60208083525f84546117bd81611514565b806020870152604060018084165f81146117de57600181146117fa57611827565b60ff19851660408a0152604084151560051b8a01019550611827565b895f5260205f205f5b8581101561181e5781548b8201860152908301908801611803565b8a016040019650505b509398975050505050505050565b8181038181111561091c5761091c6114d4565b8481526001600160a01b03841660208201526080604082018190525f90611871908301856112bf565b90506054831061188f57634e487b7160e01b5f52602160045260245ffd5b8260608301529594505050505056fea2646970667358221220c62390046151b5ab135aaa51e08980feabaff2ae970ad712bae3740d519b4d1f64736f6c63430008180033",
  "devdoc": {
    "kind": "dev",
    "methods": {},
    "title": "EncryptedAuction",
    "version": 1
  },
  "userdoc": {
    "errors": {
      "ZamaProtocolUnsupported()": [
        {
          "notice": "Returned if the Zama protocol is not supported on the current chain"
        }
      ]
    },
    "kind": "user",
    "methods": {},
    "notice": "Stores encrypted bid data for GhostBid sealed NFT auctions.",
    "version": 1
  },
  "storageLayout": {
    "storage": [
      {
        "astId": 39341,
        "contract": "contracts/EncryptedAuction.sol:EncryptedAuction",
        "label": "manager",
        "offset": 0,
        "slot": "0",
        "type": "t_address"
      },
      {
        "astId": 39344,
        "contract": "contracts/EncryptedAuction.sol:EncryptedAuction",
        "label": "nextAuctionId",
        "offset": 0,
        "slot": "1",
        "type": "t_uint256"
      },
      {
        "astId": 39349,
        "contract": "contracts/EncryptedAuction.sol:EncryptedAuction",
        "label": "auctions",
        "offset": 0,
        "slot": "2",
        "type": "t_mapping(t_uint256,t_struct(Auction)39329_storage)"
      },
      {
        "astId": 39355,
        "contract": "contracts/EncryptedAuction.sol:EncryptedAuction",
        "label": "auctionBids",
        "offset": 0,
        "slot": "3",
        "type": "t_mapping(t_uint256,t_array(t_struct(Bid)39339_storage)dyn_storage)"
      },
      {
        "astId": 39414,
        "contract": "contracts/EncryptedAuction.sol:EncryptedAuction",
        "label": "defaultAdapter",
        "offset": 0,
        "slot": "4",
        "type": "t_contract(IFHE)40245"
      }
    ],
    "types": {
      "t_address": {
        "encoding": "inplace",
        "label": "address",
        "numberOfBytes": "20"
      },
      "t_array(t_struct(Bid)39339_storage)dyn_storage": {
        "base": "t_struct(Bid)39339_storage",
        "encoding": "dynamic_array",
        "label": "struct EncryptedAuction.Bid[]",
        "numberOfBytes": "32"
      },
      "t_bool": {
        "encoding": "inplace",
        "label": "bool",
        "numberOfBytes": "1"
      },
      "t_bytes32": {
        "encoding": "inplace",
        "label": "bytes32",
        "numberOfBytes": "32"
      },
      "t_bytes_storage": {
        "encoding": "bytes",
        "label": "bytes",
        "numberOfBytes": "32"
      },
      "t_contract(IFHE)40245": {
        "encoding": "inplace",
        "label": "contract IFHE",
        "numberOfBytes": "20"
      },
      "t_mapping(t_uint256,t_array(t_struct(Bid)39339_storage)dyn_storage)": {
        "encoding": "mapping",
        "key": "t_uint256",
        "label": "mapping(uint256 => struct EncryptedAuction.Bid[])",
        "numberOfBytes": "32",
        "value": "t_array(t_struct(Bid)39339_storage)dyn_storage"
      },
      "t_mapping(t_uint256,t_struct(Auction)39329_storage)": {
        "encoding": "mapping",
        "key": "t_uint256",
        "label": "mapping(uint256 => struct EncryptedAuction.Auction)",
        "numberOfBytes": "32",
        "value": "t_struct(Auction)39329_storage"
      },
      "t_struct(Auction)39329_storage": {
        "encoding": "inplace",
        "label": "struct EncryptedAuction.Auction",
        "members": [
          {
            "astId": 39307,
            "contract": "contracts/EncryptedAuction.sol:EncryptedAuction",
            "label": "seller",
            "offset": 0,
            "slot": "0",
            "type": "t_address"
          },
          {
            "astId": 39309,
            "contract": "contracts/EncryptedAuction.sol:EncryptedAuction",
            "label": "nftContract",
            "offset": 0,
            "slot": "1",
            "type": "t_address"
          },
          {
            "astId": 39311,
            "contract": "contracts/EncryptedAuction.sol:EncryptedAuction",
            "label": "tokenId",
            "offset": 0,
            "slot": "2",
            "type": "t_uint256"
          },
          {
            "astId": 39313,
            "contract": "contracts/EncryptedAuction.sol:EncryptedAuction",
            "label": "startTime",
            "offset": 0,
            "slot": "3",
            "type": "t_uint256"
          },
          {
            "astId": 39315,
            "contract": "contracts/EncryptedAuction.sol:EncryptedAuction",
            "label": "endTime",
            "offset": 0,
            "slot": "4",
            "type": "t_uint256"
          },
          {
            "astId": 39317,
            "contract": "contracts/EncryptedAuction.sol:EncryptedAuction",
            "label": "maxBidders",
            "offset": 0,
            "slot": "5",
            "type": "t_uint8"
          },
          {
            "astId": 39319,
            "contract": "contracts/EncryptedAuction.sol:EncryptedAuction",
            "label": "minDepositWei",
            "offset": 0,
            "slot": "6",
            "type": "t_uint256"
          },
          {
            "astId": 39321,
            "contract": "contracts/EncryptedAuction.sol:EncryptedAuction",
            "label": "finalized",
            "offset": 0,
            "slot": "7",
            "type": "t_bool"
          },
          {
            "astId": 39323,
            "contract": "contracts/EncryptedAuction.sol:EncryptedAuction",
            "label": "winnerCiphertext",
            "offset": 0,
            "slot": "8",
            "type": "t_bytes_storage"
          },
          {
            "astId": 39325,
            "contract": "contracts/EncryptedAuction.sol:EncryptedAuction",
            "label": "winner",
            "offset": 0,
            "slot": "9",
            "type": "t_address"
          },
          {
            "astId": 39328,
            "contract": "contracts/EncryptedAuction.sol:EncryptedAuction",
            "label": "fheAdapter",
            "offset": 0,
            "slot": "10",
            "type": "t_contract(IFHE)40245"
          }
        ],
        "numberOfBytes": "352"
      },
      "t_struct(Bid)39339_storage": {
        "encoding": "inplace",
        "label": "struct EncryptedAuction.Bid",
        "members": [
          {
            "astId": 39332,
            "contract": "contracts/EncryptedAuction.sol:EncryptedAuction",
            "label": "ciphertext",
            "offset": 0,
            "slot": "0",
            "type": "t_userDefinedValueType(euint64)40265"
          },
          {
            "astId": 39334,
            "contract": "contracts/EncryptedAuction.sol:EncryptedAuction",
            "label": "bidder",
            "offset": 0,
            "slot": "1",
            "type": "t_address"
          },
          {
            "astId": 39336,
            "contract": "contracts/EncryptedAuction.sol:EncryptedAuction",
            "label": "commitment",
            "offset": 0,
            "slot": "2",
            "type": "t_bytes32"
          },
          {
            "astId": 39338,
            "contract": "contracts/EncryptedAuction.sol:EncryptedAuction",
            "label": "deposit",
            "offset": 0,
            "slot": "3",
            "type": "t_uint256"
          }
        ],
        "numberOfBytes": "128"
      },
      "t_uint256": {
        "encoding": "inplace",
        "label": "uint256",
        "numberOfBytes": "32"
      },
      "t_uint8": {
        "encoding": "inplace",
        "label": "uint8",
        "numberOfBytes": "1"
      },
      "t_userDefinedValueType(euint64)40265": {
        "encoding": "inplace",
        "label": "euint64",
        "numberOfBytes": "32"
      }
    }
  }
}