{
  "_format": "hh-sol-artifact-1",
  "contractName": "EncryptedAuction",
  "sourceName": "contracts/EncryptedAuction.sol",
  "abi": [
    {
      "inputs": [
        {
          "internalType": "address",
          "name": "managerAddress",
          "type": "address"
        }
      ],
      "stateMutability": "nonpayable",
      "type": "constructor"
    },
    {
      "inputs": [],
      "name": "AdapterNotSet",
      "type": "error"
    },
    {
      "inputs": [],
      "name": "AlreadyFinalized",
      "type": "error"
    },
    {
      "inputs": [],
      "name": "AuctionActive",
      "type": "error"
    },
    {
      "inputs": [],
      "name": "AuctionClosed",
      "type": "error"
    },
    {
      "inputs": [],
      "name": "AuctionNotFound",
      "type": "error"
    },
    {
      "inputs": [],
      "name": "BidLimitReached",
      "type": "error"
    },
    {
      "inputs": [],
      "name": "BidNotFound",
      "type": "error"
    },
    {
      "inputs": [],
      "name": "DepositTooLow",
      "type": "error"
    },
    {
      "inputs": [],
      "name": "InvalidCiphertext",
      "type": "error"
    },
    {
      "inputs": [],
      "name": "InvalidWindow",
      "type": "error"
    },
    {
      "inputs": [],
      "name": "NotManager",
      "type": "error"
    },
    {
      "inputs": [],
      "name": "NotSeller",
      "type": "error"
    },
    {
      "inputs": [],
      "name": "ZamaProtocolUnsupported",
      "type": "error"
    },
    {
      "anonymous": false,
      "inputs": [
        {
          "indexed": true,
          "internalType": "uint256",
          "name": "auctionId",
          "type": "uint256"
        },
        {
          "indexed": true,
          "internalType": "address",
          "name": "seller",
          "type": "address"
        }
      ],
      "name": "AuctionConfigured",
      "type": "event"
    },
    {
      "anonymous": false,
      "inputs": [
        {
          "indexed": true,
          "internalType": "uint256",
          "name": "auctionId",
          "type": "uint256"
        },
        {
          "indexed": false,
          "internalType": "bytes",
          "name": "winnerCiphertext",
          "type": "bytes"
        }
      ],
      "name": "AuctionFinalized",
      "type": "event"
    },
    {
      "anonymous": false,
      "inputs": [
        {
          "indexed": true,
          "internalType": "uint256",
          "name": "auctionId",
          "type": "uint256"
        },
        {
          "indexed": true,
          "internalType": "uint256",
          "name": "bidIndex",
          "type": "uint256"
        },
        {
          "indexed": true,
          "internalType": "address",
          "name": "bidder",
          "type": "address"
        }
      ],
      "name": "EncryptedBidSubmitted",
      "type": "event"
    },
    {
      "anonymous": false,
      "inputs": [
        {
          "indexed": true,
          "internalType": "address",
          "name": "newManager",
          "type": "address"
        }
      ],
      "name": "ManagerUpdated",
      "type": "event"
    },
    {
      "anonymous": false,
      "inputs": [
        {
          "indexed": true,
          "internalType": "uint256",
          "name": "auctionId",
          "type": "uint256"
        },
        {
          "indexed": false,
          "internalType": "address",
          "name": "winner",
          "type": "address"
        },
        {
          "indexed": false,
          "internalType": "uint256",
          "name": "amountWei",
          "type": "uint256"
        }
      ],
      "name": "WinnerRevealed",
      "type": "event"
    },
    {
      "inputs": [
        {
          "internalType": "uint256",
          "name": "",
          "type": "uint256"
        },
        {
          "internalType": "uint256",
          "name": "",
          "type": "uint256"
        }
      ],
      "name": "auctionBids",
      "outputs": [
        {
          "internalType": "euint64",
          "name": "ciphertext",
          "type": "bytes32"
        },
        {
          "internalType": "address",
          "name": "bidder",
          "type": "address"
        },
        {
          "internalType": "bytes32",
          "name": "commitment",
          "type": "bytes32"
        },
        {
          "internalType": "uint256",
          "name": "deposit",
          "type": "uint256"
        }
      ],
      "stateMutability": "view",
      "type": "function"
    },
    {
      "inputs": [
        {
          "internalType": "uint256",
          "name": "",
          "type": "uint256"
        }
      ],
      "name": "auctions",
      "outputs": [
        {
          "internalType": "address",
          "name": "seller",
          "type": "address"
        },
        {
          "internalType": "address",
          "name": "nftContract",
          "type": "address"
        },
        {
          "internalType": "uint256",
          "name": "tokenId",
          "type": "uint256"
        },
        {
          "internalType": "uint256",
          "name": "startTime",
          "type": "uint256"
        },
        {
          "internalType": "uint256",
          "name": "endTime",
          "type": "uint256"
        },
        {
          "internalType": "uint8",
          "name": "maxBidders",
          "type": "uint8"
        },
        {
          "internalType": "uint256",
          "name": "minDepositWei",
          "type": "uint256"
        },
        {
          "internalType": "bool",
          "name": "finalized",
          "type": "bool"
        },
        {
          "internalType": "bytes",
          "name": "winnerCiphertext",
          "type": "bytes"
        },
        {
          "internalType": "address",
          "name": "winner",
          "type": "address"
        },
        {
          "internalType": "contract IFHE",
          "name": "fheAdapter",
          "type": "address"
        }
      ],
      "stateMutability": "view",
      "type": "function"
    },
    {
      "inputs": [],
      "name": "confidentialProtocolId",
      "outputs": [
        {
          "internalType": "uint256",
          "name": "",
          "type": "uint256"
        }
      ],
      "stateMutability": "view",
      "type": "function"
    },
    {
      "inputs": [
        {
          "internalType": "address",
          "name": "seller",
          "type": "address"
        },
        {
          "internalType": "address",
          "name": "nftContract",
          "type": "address"
        },
        {
          "internalType": "uint256",
          "name": "tokenId",
          "type": "uint256"
        },
        {
          "internalType": "uint256",
          "name": "startTime",
          "type": "uint256"
        },
        {
          "internalType": "uint256",
          "name": "endTime",
          "type": "uint256"
        },
        {
          "internalType": "uint8",
          "name": "maxBidders",
          "type": "uint8"
        },
        {
          "internalType": "uint256",
          "name": "minDepositWei",
          "type": "uint256"
        }
      ],
      "name": "createAuction",
      "outputs": [
        {
          "internalType": "uint256",
          "name": "",
          "type": "uint256"
        }
      ],
      "stateMutability": "nonpayable",
      "type": "function"
    },
    {
      "inputs": [
        {
          "internalType": "uint256",
          "name": "auctionId",
          "type": "uint256"
        }
      ],
      "name": "finalizeAuctionWithAdapter",
      "outputs": [],
      "stateMutability": "nonpayable",
      "type": "function"
    },
    {
      "inputs": [
        {
          "internalType": "uint256",
          "name": "auctionId",
          "type": "uint256"
        },
        {
          "internalType": "uint256",
          "name": "index",
          "type": "uint256"
        }
      ],
      "name": "getBidCiphertext",
      "outputs": [
        {
          "internalType": "bytes32",
          "name": "",
          "type": "bytes32"
        }
      ],
      "stateMutability": "view",
      "type": "function"
    },
    {
      "inputs": [
        {
          "internalType": "uint256",
          "name": "auctionId",
          "type": "uint256"
        }
      ],
      "name": "getBidCount",
      "outputs": [
        {
          "internalType": "uint256",
          "name": "",
          "type": "uint256"
        }
      ],
      "stateMutability": "view",
      "type": "function"
    },
    {
      "inputs": [
        {
          "internalType": "uint256",
          "name": "auctionId",
          "type": "uint256"
        }
      ],
      "name": "getWinnerCiphertext",
      "outputs": [
        {
          "internalType": "bytes",
          "name": "",
          "type": "bytes"
        }
      ],
      "stateMutability": "view",
      "type": "function"
    },
    {
      "inputs": [],
      "name": "manager",
      "outputs": [
        {
          "internalType": "address",
          "name": "",
          "type": "address"
        }
      ],
      "stateMutability": "view",
      "type": "function"
    },
    {
      "inputs": [],
      "name": "nextAuctionId",
      "outputs": [
        {
          "internalType": "uint256",
          "name": "",
          "type": "uint256"
        }
      ],
      "stateMutability": "view",
      "type": "function"
    },
    {
      "inputs": [
        {
          "internalType": "uint256",
          "name": "auctionId",
          "type": "uint256"
        },
        {
          "internalType": "address",
          "name": "winner",
          "type": "address"
        },
        {
          "internalType": "uint256",
          "name": "amountWei",
          "type": "uint256"
        }
      ],
      "name": "revealWinner",
      "outputs": [],
      "stateMutability": "nonpayable",
      "type": "function"
    },
    {
      "inputs": [
        {
          "internalType": "uint256",
          "name": "auctionId",
          "type": "uint256"
        },
        {
          "internalType": "address",
          "name": "adapter",
          "type": "address"
        }
      ],
      "name": "setFHEAdapter",
      "outputs": [],
      "stateMutability": "nonpayable",
      "type": "function"
    },
    {
      "inputs": [
        {
          "internalType": "address",
          "name": "newManager",
          "type": "address"
        }
      ],
      "name": "setManager",
      "outputs": [],
      "stateMutability": "nonpayable",
      "type": "function"
    },
    {
      "inputs": [
        {
          "internalType": "uint256",
          "name": "auctionId",
          "type": "uint256"
        },
        {
          "internalType": "bytes32",
          "name": "ciphertextHandle",
          "type": "bytes32"
        },
        {
          "internalType": "bytes",
          "name": "inputProof",
          "type": "bytes"
        },
        {
          "internalType": "bytes32",
          "name": "commitment",
          "type": "bytes32"
        }
      ],
      "name": "submitEncryptedBid",
      "outputs": [],
      "stateMutability": "payable",
      "type": "function"
    },
    {
      "inputs": [
        {
          "internalType": "uint256",
          "name": "auctionId",
          "type": "uint256"
        },
        {
          "internalType": "bytes",
          "name": "winnerCiphertext",
          "type": "bytes"
        }
      ],
      "name": "submitFinalizedWinner",
      "outputs": [],
      "stateMutability": "nonpayable",
      "type": "function"
    }
  ],
  "bytecode": "0x60806040526001805534801562000014575f80fd5b5060405162001b0a38038062001b0a83398101604081905262000037916200029f565b620000ee620000456200012d565b80517f9e7b61f58c47dc699ac88507c4f5bb9f121c03808c5676a8078fe583e464970080546001600160a01b03199081166001600160a01b039384161790915560208301517f9e7b61f58c47dc699ac88507c4f5bb9f121c03808c5676a8078fe583e46497018054831691841691909117905560408301517f9e7b61f58c47dc699ac88507c4f5bb9f121c03808c5676a8078fe583e46497028054909216921691909117905550565b6001600160a01b0381161562000105578062000107565b335b5f80546001600160a01b0319166001600160a01b039290921691909117905550620002ce565b604080516060810182525f80825260208201819052918101919091524660010362000187575060408051606080820183525f8083526020808401829052928401819052835191820184528082529181018290529182015290565b4662aa36a70362000207575060408051606080820183525f8083526020808401829052928401528251908101835273f0ffdc93b7e186bc2f8cb3daa75d86d1930a433d81527392c920834ec8941d2c77d188936e1f7a6f49c1279181019190915273be0e383937d564d7ff0bc3b46c51f0bf8d5c311a9181019190915290565b46617a690362000286575060408051606080820183525f8083526020808401829052928401528251908101835273f0ffdc93b7e186bc2f8cb3daa75d86d1930a433d81527392c920834ec8941d2c77d188936e1f7a6f49c1279181019190915273be0e383937d564d7ff0bc3b46c51f0bf8d5c311a9181019190915290565b6040516373cac13b60e01b815260040160405180910390fd5b5f60208284031215620002b0575f80fd5b81516001600160a01b0381168114620002c7575f80fd5b9392505050565b61182e80620002dc5f395ff3fe6080604052600436106100e4575f3560e01c80637ac1461011610087578063ad48130d11610057578063ad48130d14610291578063d0ebdbe7146102b0578063e6ae5050146102cf578063fc528482146102fb575f80fd5b80637ac146101461022c5780638437dd291461024b5780638927b0301461026a5780639cf133f11461027e575f80fd5b8063571a26a0116100c2578063571a26a0146101715780635f93de49146101a757806363713eb3146101ee578063744d34111461020d575f80fd5b806302b99be4146100e85780631c85d15d1461011a578063481c6a751461013b575b5f80fd5b3480156100f3575f80fd5b50610107610102366004611162565b610310565b6040519081526020015b60405180910390f35b348015610125575f80fd5b506101396101343660046111d0565b6104eb565b005b348015610146575f80fd5b505f54610159906001600160a01b031681565b6040516001600160a01b039091168152602001610111565b34801561017c575f80fd5b5061019061018b366004611202565b6105a7565b6040516101119b9a9998979695949392919061125c565b3480156101b2575f80fd5b506101c66101c13660046112d6565b6106a8565b604080519485526001600160a01b039093166020850152918301526060820152608001610111565b3480156101f9575f80fd5b5061013961020836600461133b565b6106f3565b348015610218575f80fd5b50610107610227366004611202565b6107e6565b348015610237575f80fd5b506101076102463660046112d6565b61082e565b348015610256575f80fd5b50610139610265366004611202565b6108c8565b348015610275575f80fd5b50610107610b3a565b61013961028c366004611383565b610b48565b34801561029c575f80fd5b506101396102ab3660046113d9565b610d39565b3480156102bb575f80fd5b506101396102ca366004611403565b610e07565b3480156102da575f80fd5b506102ee6102e9366004611202565b610e78565b604051610111919061141c565b348015610306575f80fd5b5061010760015481565b5f80546001600160a01b0316331461033b5760405163607e454560e11b815260040160405180910390fd5b83851061035b5760405163392334ed60e01b815260040160405180910390fd5b600180545f918261036b83611442565b9091555060408051610160810182526001600160a01b03808d1682528b811660208084019182528385018d8152606085018d8152608086018d815260ff808e1660a0890190815260c089018e81525f60e08b018181528c51808a018e528281526101008d019081526101208d018390526101408d018390528e83526002998a90529c9091208b518154908c166001600160a01b0319918216178255995160018201805491909c169a16999099179099559451958701959095559151600386015551600485015591516005840180549190931660ff199182161790925551600683015591516007820180549115159190931617909155915192935091600882019061047590826114ef565b506101208201516009820180546001600160a01b03199081166001600160a01b039384161790915561014090930151600a90920180549093169116179055604051339082907f71b5179c31c446cc17b6f860b4642cc7255110f508db865652aa9d08bef085ff905f90a398975050505050505050565b5f83815260026020526040902080546001600160a01b0316610520576040516307145c5f60e11b815260040160405180910390fd5b600781015460ff16610545576040516359bfb80360e11b815260040160405180910390fd5b6009810180546001600160a01b0319166001600160a01b038516908117909155604080519182526020820184905285917f992535e802e8123e9eb931d979647edc6493f77f265deea35426b61dde47f78b91015b60405180910390a250505050565b600260208190525f91825260409091208054600182015492820154600383015460048401546005850154600686015460078701546008880180546001600160a01b039889169a9098169896979596949560ff94851695939492909216929161060e9061146e565b80601f016020809104026020016040519081016040528092919081815260200182805461063a9061146e565b80156106855780601f1061065c57610100808354040283529160200191610685565b820191905f5260205f20905b81548152906001019060200180831161066857829003601f168201915b505050506009830154600a9093015491926001600160a01b03908116921690508b565b6003602052815f5260405f2081815481106106c1575f80fd5b5f91825260209091206004909102018054600182015460028301546003909301549194506001600160a01b0316925084565b5f83815260026020526040902080546001600160a01b0316610728576040516307145c5f60e11b815260040160405180910390fd5b8060040154421161074c576040516359bfb80360e11b815260040160405180910390fd5b600781015460ff16156107725760405163475a253560e01b815260040160405180910390fd5b6020821461079357604051634c4d29cd60e11b815260040160405180910390fd5b600881016107a28385836115af565b5060078101805460ff1916600117905560405184907fafcad72499f0ef2939e2cda92ec941e5177084b2479ff274455187b7ec5fdfa2906105999086908690611669565b5f81815260026020526040812080546001600160a01b031661081b576040516307145c5f60e11b815260040160405180910390fd5b50505f9081526003602052604090205490565b5f82815260026020526040812080546001600160a01b0316610863576040516307145c5f60e11b815260040160405180910390fd5b5f848152600360205260409020548310610890576040516307e0eec960e31b815260040160405180910390fd5b5f8481526003602052604090208054849081106108af576108af611697565b905f5260205f2090600402015f01549150505b92915050565b5f81815260026020526040902080546001600160a01b03166108fd576040516307145c5f60e11b815260040160405180910390fd5b80600401544211610921576040516359bfb80360e11b815260040160405180910390fd5b600781015460ff16156109475760405163475a253560e01b815260040160405180910390fd5b600a8101546001600160a01b031661097257604051635048c2af60e11b815260040160405180910390fd5b5f8281526003602052604081205467ffffffffffffffff8111156109985761099861145a565b6040519080825280602002602001820160405280156109c1578160200160208202803683370190505b5090505f5b5f84815260036020526040902054811015610a4e575f8481526003602052604081208054839081106109fa576109fa611697565b5f918252602090912060049091020154600a850154909150610a269082906001600160a01b0316610f44565b5080838381518110610a3a57610a3a611697565b6020908102919091010152506001016109c6565b50600a820154604051639457033360e01b81525f916001600160a01b031690639457033390610a819085906004016116ab565b6020604051808303815f875af1158015610a9d573d5f803e3d5ffd5b505050506040513d601f19601f82011682018060405250810190610ac191906116ee565b905080604051602001610ad691815260200190565b604051602081830303815290604052836008019081610af591906114ef565b5060078301805460ff1916600117905560405184907fafcad72499f0ef2939e2cda92ec941e5177084b2479ff274455187b7ec5fdfa290610599906008870190611705565b5f610b43610f56565b905090565b5f85815260026020526040902080546001600160a01b0316610b7d576040516307145c5f60e11b815260040160405180910390fd5b8060030154421015610ba2576040516359bfb80360e11b815260040160405180910390fd5b8060040154421115610bc7576040516336b6b46d60e01b815260040160405180910390fd5b60058101545f8781526003602052604090205460ff90911611610bfd57604051631047a77760e11b815260040160405180910390fd5b8060060154341015610c2257604051632b7786bd60e21b815260040160405180910390fd5b5f8590505f610c668287878080601f0160208091040260200160405190810160405280939291908181526020018383808284375f92019190915250610f8a92505050565b9050610c728130610f44565b505f8881526003602081815260408084208151608081018352868152338185018181529382018b81523460608401908152845460018082018755868b52888b2095516004909202909501908155955186850180546001600160a01b0319166001600160a01b03909216919091179055905160028601555193860193909355948d90529290915290549091610d059161178f565b6040518a907f4506ba9f0ddee0498eba47c77f72bbb49b911d70c03b36879667060a6c3d0b9e905f90a45050505050505050565b5f82815260026020526040902080546001600160a01b0316610d6e576040516307145c5f60e11b815260040160405180910390fd5b80546001600160a01b03163314610d9857604051635ec8235160e01b815260040160405180910390fd5b600a810180546001600160a01b0319166001600160a01b0384161790555f838152600360205260408120905b8154811015610e0057610df7828281548110610de257610de2611697565b905f5260205f2090600402015f015485610f44565b50600101610dc4565b5050505050565b5f546001600160a01b03163314610e315760405163607e454560e11b815260040160405180910390fd5b5f80546001600160a01b0319166001600160a01b038316908117825560405190917f2c1c11af44aa5608f1dca38c00275c30ea091e02417d36e70e9a1538689c433d91a250565b5f8181526002602052604090208054606091906001600160a01b0316610eb1576040516307145c5f60e11b815260040160405180910390fd5b806008018054610ec09061146e565b80601f0160208091040260200160405190810160405280929190818152602001828054610eec9061146e565b8015610f375780601f10610f0e57610100808354040283529160200191610f37565b820191905f5260205f20905b815481529060010190602001808311610f1a57829003601f168201915b5050505050915050919050565b5f610f4f8383610f9e565b5090919050565b5f46600103610f655750600190565b4662aa36a703610f76575061271190565b46617a6903610f8557505f1990565b505f90565b5f610f9783836005611027565b9392505050565b5f7f9e7b61f58c47dc699ac88507c4f5bb9f121c03808c5676a8078fe583e46497008054604051635ca4b5b160e11b8152600481018690526001600160a01b03858116602483015292935091169063b9496b62906044015f604051808303815f87803b15801561100c575f80fd5b505af115801561101e573d5f803e3d5ffd5b50505050505050565b7f9e7b61f58c47dc699ac88507c4f5bb9f121c03808c5676a8078fe583e46497015460405163045fc19560e11b81525f917f9e7b61f58c47dc699ac88507c4f5bb9f121c03808c5676a8078fe583e4649700916001600160a01b03909116906308bf832a906110a09088903390899089906004016117a2565b6020604051808303815f875af11580156110bc573d5f803e3d5ffd5b505050506040513d601f19601f820116820180604052508101906110e091906116ee565b8154604051630f8e573b60e21b8152600481018390523360248201529193506001600160a01b031690633e395cec906044015f604051808303815f87803b158015611129575f80fd5b505af115801561113b573d5f803e3d5ffd5b50505050509392505050565b80356001600160a01b038116811461115d575f80fd5b919050565b5f805f805f805f60e0888a031215611178575f80fd5b61118188611147565b965061118f60208901611147565b955060408801359450606088013593506080880135925060a088013560ff811681146111b9575f80fd5b8092505060c0880135905092959891949750929550565b5f805f606084860312156111e2575f80fd5b833592506111f260208501611147565b9150604084013590509250925092565b5f60208284031215611212575f80fd5b5035919050565b5f81518084525f5b8181101561123d57602081850181015186830182015201611221565b505f602082860101526020601f19601f83011685010191505092915050565b5f61016060018060a01b03808f168452808e1660208501528c60408501528b60608501528a608085015260ff8a1660a08501528860c085015287151560e0850152816101008501526112b082850188611219565b925080861661012085015280851661014085015250509c9b505050505050505050505050565b5f80604083850312156112e7575f80fd5b50508035926020909101359150565b5f8083601f840112611306575f80fd5b50813567ffffffffffffffff81111561131d575f80fd5b602083019150836020828501011115611334575f80fd5b9250929050565b5f805f6040848603121561134d575f80fd5b83359250602084013567ffffffffffffffff81111561136a575f80fd5b611376868287016112f6565b9497909650939450505050565b5f805f805f60808688031215611397575f80fd5b8535945060208601359350604086013567ffffffffffffffff8111156113bb575f80fd5b6113c7888289016112f6565b96999598509660600135949350505050565b5f80604083850312156113ea575f80fd5b823591506113fa60208401611147565b90509250929050565b5f60208284031215611413575f80fd5b610f9782611147565b602081525f610f976020830184611219565b634e487b7160e01b5f52601160045260245ffd5b5f600182016114535761145361142e565b5060010190565b634e487b7160e01b5f52604160045260245ffd5b600181811c9082168061148257607f821691505b6020821081036114a057634e487b7160e01b5f52602260045260245ffd5b50919050565b601f8211156114ea57805f5260205f20601f840160051c810160208510156114cb5750805b601f840160051c820191505b81811015610e00575f81556001016114d7565b505050565b815167ffffffffffffffff8111156115095761150961145a565b61151d81611517845461146e565b846114a6565b602080601f831160018114611550575f84156115395750858301515b5f19600386901b1c1916600185901b1785556115a7565b5f85815260208120601f198616915b8281101561157e5788860151825594840194600190910190840161155f565b508582101561159b57878501515f19600388901b60f8161c191681555b505060018460011b0185555b505050505050565b67ffffffffffffffff8311156115c7576115c761145a565b6115db836115d5835461146e565b836114a6565b5f601f84116001811461160c575f85156115f55750838201355b5f19600387901b1c1916600186901b178355610e00565b5f83815260208120601f198716915b8281101561163b578685013582556020948501946001909201910161161b565b5086821015611657575f1960f88860031b161c19848701351681555b505060018560011b0183555050505050565b60208152816020820152818360408301375f818301604090810191909152601f909201601f19160101919050565b634e487b7160e01b5f52603260045260245ffd5b602080825282518282018190525f9190848201906040850190845b818110156116e2578351835292840192918401916001016116c6565b50909695505050505050565b5f602082840312156116fe575f80fd5b5051919050565b5f60208083525f84546117178161146e565b806020870152604060018084165f8114611738576001811461175457611781565b60ff19851660408a0152604084151560051b8a01019550611781565b895f5260205f205f5b858110156117785781548b820186015290830190880161175d565b8a016040019650505b509398975050505050505050565b818103818111156108c2576108c261142e565b8481526001600160a01b03841660208201526080604082018190525f906117cb90830185611219565b9050605483106117e957634e487b7160e01b5f52602160045260245ffd5b8260608301529594505050505056fea264697066735822122022f477d7ecadebea65a8cc4596d31a372bff5530e78ce2c65f2ab4904e593ae664736f6c63430008180033",
  "linkReferences": {},
  "deployedLinkReferences": {}
}