{
  "_format": "hh-sol-artifact-1",
  "contractName": "AuctionManager",
  "sourceName": "contracts/AuctionManager.sol",
  "abi": [
    {
      "inputs": [
        {
          "internalType": "address",
          "name": "encryptedAuctionAddress",
          "type": "address"
        }
      ],
      "stateMutability": "nonpayable",
      "type": "constructor"
    },
    {
      "anonymous": false,
      "inputs": [
        {
          "indexed": true,
          "internalType": "uint256",
          "name": "auctionId",
          "type": "uint256"
        },
        {
          "indexed": true,
          "internalType": "address",
          "name": "seller",
          "type": "address"
        }
      ],
      "name": "AuctionCreated",
      "type": "event"
    },
    {
      "inputs": [],
      "name": "auctionCount",
      "outputs": [
        {
          "internalType": "uint256",
          "name": "",
          "type": "uint256"
        }
      ],
      "stateMutability": "view",
      "type": "function"
    },
    {
      "inputs": [
        {
          "internalType": "uint256",
          "name": "",
          "type": "uint256"
        }
      ],
      "name": "auctions",
      "outputs": [
        {
          "internalType": "address",
          "name": "seller",
          "type": "address"
        },
        {
          "internalType": "address",
          "name": "nftContract",
          "type": "address"
        },
        {
          "internalType": "uint256",
          "name": "tokenId",
          "type": "uint256"
        },
        {
          "internalType": "uint256",
          "name": "startTime",
          "type": "uint256"
        },
        {
          "internalType": "uint256",
          "name": "endTime",
          "type": "uint256"
        },
        {
          "internalType": "uint8",
          "name": "maxBidders",
          "type": "uint8"
        },
        {
          "internalType": "uint256",
          "name": "minDepositWei",
          "type": "uint256"
        }
      ],
      "stateMutability": "view",
      "type": "function"
    },
    {
      "inputs": [
        {
          "internalType": "address",
          "name": "nftContract",
          "type": "address"
        },
        {
          "internalType": "uint256",
          "name": "tokenId",
          "type": "uint256"
        },
        {
          "internalType": "uint256",
          "name": "startTime",
          "type": "uint256"
        },
        {
          "internalType": "uint256",
          "name": "endTime",
          "type": "uint256"
        },
        {
          "internalType": "uint8",
          "name": "maxBidders",
          "type": "uint8"
        },
        {
          "internalType": "uint256",
          "name": "minDepositWei",
          "type": "uint256"
        }
      ],
      "name": "createAuction",
      "outputs": [
        {
          "internalType": "uint256",
          "name": "",
          "type": "uint256"
        }
      ],
      "stateMutability": "nonpayable",
      "type": "function"
    },
    {
      "inputs": [],
      "name": "encryptedAuction",
      "outputs": [
        {
          "internalType": "contract EncryptedAuction",
          "name": "",
          "type": "address"
        }
      ],
      "stateMutability": "view",
      "type": "function"
    },
    {
      "inputs": [
        {
          "internalType": "uint256",
          "name": "auctionId",
          "type": "uint256"
        }
      ],
      "name": "getAuction",
      "outputs": [
        {
          "components": [
            {
              "internalType": "address",
              "name": "seller",
              "type": "address"
            },
            {
              "internalType": "address",
              "name": "nftContract",
              "type": "address"
            },
            {
              "internalType": "uint256",
              "name": "tokenId",
              "type": "uint256"
            },
            {
              "internalType": "uint256",
              "name": "startTime",
              "type": "uint256"
            },
            {
              "internalType": "uint256",
              "name": "endTime",
              "type": "uint256"
            },
            {
              "internalType": "uint8",
              "name": "maxBidders",
              "type": "uint8"
            },
            {
              "internalType": "uint256",
              "name": "minDepositWei",
              "type": "uint256"
            }
          ],
          "internalType": "struct AuctionManager.AuctionMeta",
          "name": "",
          "type": "tuple"
        }
      ],
      "stateMutability": "view",
      "type": "function"
    }
  ],
  "bytecode": "0x60a060405234801561000f575f80fd5b5060405161058e38038061058e83398101604081905261002e9161003f565b6001600160a01b031660805261006c565b5f6020828403121561004f575f80fd5b81516001600160a01b0381168114610065575f80fd5b9392505050565b60805161050361008b5f395f818161015e015261026f01526105035ff3fe608060405234801561000f575f80fd5b5060043610610055575f3560e01c80632ad7157314610059578063571a26a01461007457806378bd7935146100e4578063982dfec7146101595780639c9e63ec14610198575b5f80fd5b6100615f5481565b6040519081526020015b60405180910390f35b6100d16100823660046103f4565b600160208190525f918252604090912080549181015460028201546003830154600484015460058501546006909501546001600160a01b03968716969094169492939192909160ff9091169087565b60405161006b979695949392919061040b565b6100f76100f23660046103f4565b6101ab565b60405161006b919081516001600160a01b0390811682526020808401519091169082015260408083015190820152606080830151908201526080808301519082015260a08281015160ff169082015260c0918201519181019190915260e00190565b6101807f000000000000000000000000000000000000000000000000000000000000000081565b6040516001600160a01b03909116815260200161006b565b6100616101a636600461044c565b61026b565b6101f96040518060e001604052805f6001600160a01b031681526020015f6001600160a01b031681526020015f81526020015f81526020015f81526020015f60ff1681526020015f81525090565b505f90815260016020818152604092839020835160e08101855281546001600160a01b03908116825293820154909316918301919091526002810154928201929092526003820154606082015260048201546080820152600582015460ff1660a082015260069091015460c082015290565b5f807f00000000000000000000000000000000000000000000000000000000000000006001600160a01b03166302b99be4338a8a8a8a8a8a6040518863ffffffff1660e01b81526004016102c5979695949392919061040b565b6020604051808303815f875af11580156102e1573d5f803e3d5ffd5b505050506040513d601f19601f8201168201806040525081019061030591906104b6565b6040805160e081018252338082526001600160a01b038c811660208085019182528486018e8152606086018e8152608087018e815260ff8e811660a08a0190815260c08a018f81525f8d81526001978890528c81209b518c546001600160a01b0319908116918c16919091178d559851978c01805490991697909916969096179096559251600289015590516003880155516004870155915160058601805460ff19169190931617909155516006909301929092558382559151929350909183917f5d551e2a2cc977fd8c530317059b4f2d9f504fb82f7dfad736f8d56679bcdfd091a3979650505050505050565b5f60208284031215610404575f80fd5b5035919050565b6001600160a01b03978816815295909616602086015260408501939093526060840191909152608083015260ff1660a082015260c081019190915260e00190565b5f805f805f8060c08789031215610461575f80fd5b86356001600160a01b0381168114610477575f80fd5b9550602087013594506040870135935060608701359250608087013560ff811681146104a1575f80fd5b8092505060a087013590509295509295509295565b5f602082840312156104c6575f80fd5b505191905056fea26469706673582212204552ecbfd2ded0bbba404e0113ed31b215cb5e65a214134a6452a3f79127091464736f6c63430008180033",
  "linkReferences": {},
  "deployedLinkReferences": {}
}