{
  "_format": "hh-sol-artifact-1",
  "contractName": "EncryptedAuction",
  "sourceName": "contracts/EncryptedAuction.sol",
  "abi": [
    {
      "inputs": [
        {
          "internalType": "address",
          "name": "managerAddress",
          "type": "address"
        }
      ],
      "stateMutability": "nonpayable",
      "type": "constructor"
    },
    {
      "inputs": [],
      "name": "AdapterNotSet",
      "type": "error"
    },
    {
      "inputs": [],
      "name": "AlreadyFinalized",
      "type": "error"
    },
    {
      "inputs": [],
      "name": "AuctionActive",
      "type": "error"
    },
    {
      "inputs": [],
      "name": "AuctionClosed",
      "type": "error"
    },
    {
      "inputs": [],
      "name": "AuctionNotFound",
      "type": "error"
    },
    {
      "inputs": [],
      "name": "BidLimitReached",
      "type": "error"
    },
    {
      "inputs": [],
      "name": "BidNotFound",
      "type": "error"
    },
    {
      "inputs": [],
      "name": "DepositTooLow",
      "type": "error"
    },
    {
      "inputs": [],
      "name": "InvalidCiphertext",
      "type": "error"
    },
    {
      "inputs": [],
      "name": "InvalidWindow",
      "type": "error"
    },
    {
      "inputs": [],
      "name": "NotManager",
      "type": "error"
    },
    {
      "inputs": [],
      "name": "NotSeller",
      "type": "error"
    },
    {
      "anonymous": false,
      "inputs": [
        {
          "indexed": true,
          "internalType": "uint256",
          "name": "auctionId",
          "type": "uint256"
        },
        {
          "indexed": true,
          "internalType": "address",
          "name": "seller",
          "type": "address"
        }
      ],
      "name": "AuctionConfigured",
      "type": "event"
    },
    {
      "anonymous": false,
      "inputs": [
        {
          "indexed": true,
          "internalType": "uint256",
          "name": "auctionId",
          "type": "uint256"
        },
        {
          "indexed": false,
          "internalType": "bytes",
          "name": "winnerCiphertext",
          "type": "bytes"
        }
      ],
      "name": "AuctionFinalized",
      "type": "event"
    },
    {
      "anonymous": false,
      "inputs": [
        {
          "indexed": true,
          "internalType": "uint256",
          "name": "auctionId",
          "type": "uint256"
        },
        {
          "indexed": true,
          "internalType": "uint256",
          "name": "bidIndex",
          "type": "uint256"
        },
        {
          "indexed": true,
          "internalType": "address",
          "name": "bidder",
          "type": "address"
        }
      ],
      "name": "EncryptedBidSubmitted",
      "type": "event"
    },
    {
      "anonymous": false,
      "inputs": [
        {
          "indexed": true,
          "internalType": "address",
          "name": "newManager",
          "type": "address"
        }
      ],
      "name": "ManagerUpdated",
      "type": "event"
    },
    {
      "anonymous": false,
      "inputs": [
        {
          "indexed": true,
          "internalType": "uint256",
          "name": "auctionId",
          "type": "uint256"
        },
        {
          "indexed": false,
          "internalType": "address",
          "name": "winner",
          "type": "address"
        },
        {
          "indexed": false,
          "internalType": "uint256",
          "name": "amountWei",
          "type": "uint256"
        }
      ],
      "name": "WinnerRevealed",
      "type": "event"
    },
    {
      "inputs": [
        {
          "internalType": "uint256",
          "name": "",
          "type": "uint256"
        },
        {
          "internalType": "uint256",
          "name": "",
          "type": "uint256"
        }
      ],
      "name": "auctionBids",
      "outputs": [
        {
          "internalType": "euint64",
          "name": "ciphertext",
          "type": "bytes32"
        },
        {
          "internalType": "address",
          "name": "bidder",
          "type": "address"
        },
        {
          "internalType": "bytes32",
          "name": "commitment",
          "type": "bytes32"
        },
        {
          "internalType": "uint256",
          "name": "deposit",
          "type": "uint256"
        }
      ],
      "stateMutability": "view",
      "type": "function"
    },
    {
      "inputs": [
        {
          "internalType": "uint256",
          "name": "",
          "type": "uint256"
        }
      ],
      "name": "auctions",
      "outputs": [
        {
          "internalType": "address",
          "name": "seller",
          "type": "address"
        },
        {
          "internalType": "address",
          "name": "nftContract",
          "type": "address"
        },
        {
          "internalType": "uint256",
          "name": "tokenId",
          "type": "uint256"
        },
        {
          "internalType": "uint256",
          "name": "startTime",
          "type": "uint256"
        },
        {
          "internalType": "uint256",
          "name": "endTime",
          "type": "uint256"
        },
        {
          "internalType": "uint8",
          "name": "maxBidders",
          "type": "uint8"
        },
        {
          "internalType": "uint256",
          "name": "minDepositWei",
          "type": "uint256"
        },
        {
          "internalType": "bool",
          "name": "finalized",
          "type": "bool"
        },
        {
          "internalType": "bytes",
          "name": "winnerCiphertext",
          "type": "bytes"
        },
        {
          "internalType": "address",
          "name": "winner",
          "type": "address"
        },
        {
          "internalType": "contract IFHE",
          "name": "fheAdapter",
          "type": "address"
        }
      ],
      "stateMutability": "view",
      "type": "function"
    },
    {
      "inputs": [
        {
          "internalType": "address",
          "name": "seller",
          "type": "address"
        },
        {
          "internalType": "address",
          "name": "nftContract",
          "type": "address"
        },
        {
          "internalType": "uint256",
          "name": "tokenId",
          "type": "uint256"
        },
        {
          "internalType": "uint256",
          "name": "startTime",
          "type": "uint256"
        },
        {
          "internalType": "uint256",
          "name": "endTime",
          "type": "uint256"
        },
        {
          "internalType": "uint8",
          "name": "maxBidders",
          "type": "uint8"
        },
        {
          "internalType": "uint256",
          "name": "minDepositWei",
          "type": "uint256"
        }
      ],
      "name": "createAuction",
      "outputs": [
        {
          "internalType": "uint256",
          "name": "",
          "type": "uint256"
        }
      ],
      "stateMutability": "nonpayable",
      "type": "function"
    },
    {
      "inputs": [
        {
          "internalType": "uint256",
          "name": "auctionId",
          "type": "uint256"
        }
      ],
      "name": "finalizeAuctionWithAdapter",
      "outputs": [],
      "stateMutability": "nonpayable",
      "type": "function"
    },
    {
      "inputs": [
        {
          "internalType": "uint256",
          "name": "auctionId",
          "type": "uint256"
        },
        {
          "internalType": "uint256",
          "name": "index",
          "type": "uint256"
        }
      ],
      "name": "getBidCiphertext",
      "outputs": [
        {
          "internalType": "bytes32",
          "name": "",
          "type": "bytes32"
        }
      ],
      "stateMutability": "view",
      "type": "function"
    },
    {
      "inputs": [
        {
          "internalType": "uint256",
          "name": "auctionId",
          "type": "uint256"
        }
      ],
      "name": "getBidCount",
      "outputs": [
        {
          "internalType": "uint256",
          "name": "",
          "type": "uint256"
        }
      ],
      "stateMutability": "view",
      "type": "function"
    },
    {
      "inputs": [
        {
          "internalType": "uint256",
          "name": "auctionId",
          "type": "uint256"
        }
      ],
      "name": "getWinnerCiphertext",
      "outputs": [
        {
          "internalType": "bytes",
          "name": "",
          "type": "bytes"
        }
      ],
      "stateMutability": "view",
      "type": "function"
    },
    {
      "inputs": [],
      "name": "manager",
      "outputs": [
        {
          "internalType": "address",
          "name": "",
          "type": "address"
        }
      ],
      "stateMutability": "view",
      "type": "function"
    },
    {
      "inputs": [],
      "name": "nextAuctionId",
      "outputs": [
        {
          "internalType": "uint256",
          "name": "",
          "type": "uint256"
        }
      ],
      "stateMutability": "view",
      "type": "function"
    },
    {
      "inputs": [
        {
          "internalType": "uint256",
          "name": "auctionId",
          "type": "uint256"
        },
        {
          "internalType": "address",
          "name": "winner",
          "type": "address"
        },
        {
          "internalType": "uint256",
          "name": "amountWei",
          "type": "uint256"
        }
      ],
      "name": "revealWinner",
      "outputs": [],
      "stateMutability": "nonpayable",
      "type": "function"
    },
    {
      "inputs": [
        {
          "internalType": "uint256",
          "name": "auctionId",
          "type": "uint256"
        },
        {
          "internalType": "address",
          "name": "adapter",
          "type": "address"
        }
      ],
      "name": "setFHEAdapter",
      "outputs": [],
      "stateMutability": "nonpayable",
      "type": "function"
    },
    {
      "inputs": [
        {
          "internalType": "address",
          "name": "newManager",
          "type": "address"
        }
      ],
      "name": "setManager",
      "outputs": [],
      "stateMutability": "nonpayable",
      "type": "function"
    },
    {
      "inputs": [
        {
          "internalType": "uint256",
          "name": "auctionId",
          "type": "uint256"
        },
        {
          "internalType": "bytes32",
          "name": "ciphertextHandle",
          "type": "bytes32"
        },
        {
          "internalType": "bytes",
          "name": "inputProof",
          "type": "bytes"
        },
        {
          "internalType": "bytes32",
          "name": "commitment",
          "type": "bytes32"
        }
      ],
      "name": "submitEncryptedBid",
      "outputs": [],
      "stateMutability": "payable",
      "type": "function"
    },
    {
      "inputs": [
        {
          "internalType": "uint256",
          "name": "auctionId",
          "type": "uint256"
        },
        {
          "internalType": "bytes",
          "name": "winnerCiphertext",
          "type": "bytes"
        }
      ],
      "name": "submitFinalizedWinner",
      "outputs": [],
      "stateMutability": "nonpayable",
      "type": "function"
    }
  ],
  "bytecode": "0x608060405260018055348015610013575f80fd5b506040516118753803806118758339810160408190526100329161006e565b6001600160a01b038116156100475780610049565b335b5f80546001600160a01b0319166001600160a01b03929092169190911790555061009b565b5f6020828403121561007e575f80fd5b81516001600160a01b0381168114610094575f80fd5b9392505050565b6117cd806100a85f395ff3fe6080604052600436106100d9575f3560e01c80637ac146101161007c578063ad48130d11610057578063ad48130d14610272578063d0ebdbe714610291578063e6ae5050146102b0578063fc528482146102dc575f80fd5b80637ac14610146102215780638437dd29146102405780639cf133f11461025f575f80fd5b8063571a26a0116100b7578063571a26a0146101665780635f93de491461019c57806363713eb3146101e3578063744d341114610202575f80fd5b806302b99be4146100dd5780631c85d15d1461010f578063481c6a7514610130575b5f80fd5b3480156100e8575f80fd5b506100fc6100f7366004611101565b6102f1565b6040519081526020015b60405180910390f35b34801561011a575f80fd5b5061012e61012936600461116f565b6104cc565b005b34801561013b575f80fd5b505f5461014e906001600160a01b031681565b6040516001600160a01b039091168152602001610106565b348015610171575f80fd5b506101856101803660046111a1565b610588565b6040516101069b9a999897969594939291906111fb565b3480156101a7575f80fd5b506101bb6101b6366004611275565b610689565b604080519485526001600160a01b039093166020850152918301526060820152608001610106565b3480156101ee575f80fd5b5061012e6101fd3660046112da565b6106d4565b34801561020d575f80fd5b506100fc61021c3660046111a1565b6107c7565b34801561022c575f80fd5b506100fc61023b366004611275565b61080f565b34801561024b575f80fd5b5061012e61025a3660046111a1565b6108a9565b61012e61026d366004611322565b610b1b565b34801561027d575f80fd5b5061012e61028c366004611378565b610d0c565b34801561029c575f80fd5b5061012e6102ab3660046113a2565b610dda565b3480156102bb575f80fd5b506102cf6102ca3660046111a1565b610e4b565b60405161010691906113bb565b3480156102e7575f80fd5b506100fc60015481565b5f80546001600160a01b0316331461031c5760405163607e454560e11b815260040160405180910390fd5b83851061033c5760405163392334ed60e01b815260040160405180910390fd5b600180545f918261034c836113e1565b9091555060408051610160810182526001600160a01b03808d1682528b811660208084019182528385018d8152606085018d8152608086018d815260ff808e1660a0890190815260c089018e81525f60e08b018181528c51808a018e528281526101008d019081526101208d018390526101408d018390528e83526002998a90529c9091208b518154908c166001600160a01b0319918216178255995160018201805491909c169a16999099179099559451958701959095559151600386015551600485015591516005840180549190931660ff1991821617909255516006830155915160078201805491151591909316179091559151929350916008820190610456908261148e565b506101208201516009820180546001600160a01b03199081166001600160a01b039384161790915561014090930151600a90920180549093169116179055604051339082907f71b5179c31c446cc17b6f860b4642cc7255110f508db865652aa9d08bef085ff905f90a398975050505050505050565b5f83815260026020526040902080546001600160a01b0316610501576040516307145c5f60e11b815260040160405180910390fd5b600781015460ff16610526576040516359bfb80360e11b815260040160405180910390fd5b6009810180546001600160a01b0319166001600160a01b038516908117909155604080519182526020820184905285917f992535e802e8123e9eb931d979647edc6493f77f265deea35426b61dde47f78b91015b60405180910390a250505050565b600260208190525f91825260409091208054600182015492820154600383015460048401546005850154600686015460078701546008880180546001600160a01b039889169a9098169896979596949560ff9485169593949290921692916105ef9061140d565b80601f016020809104026020016040519081016040528092919081815260200182805461061b9061140d565b80156106665780601f1061063d57610100808354040283529160200191610666565b820191905f5260205f20905b81548152906001019060200180831161064957829003601f168201915b505050506009830154600a9093015491926001600160a01b03908116921690508b565b6003602052815f5260405f2081815481106106a2575f80fd5b5f91825260209091206004909102018054600182015460028301546003909301549194506001600160a01b0316925084565b5f83815260026020526040902080546001600160a01b0316610709576040516307145c5f60e11b815260040160405180910390fd5b8060040154421161072d576040516359bfb80360e11b815260040160405180910390fd5b600781015460ff16156107535760405163475a253560e01b815260040160405180910390fd5b6020821461077457604051634c4d29cd60e11b815260040160405180910390fd5b6008810161078383858361154e565b5060078101805460ff1916600117905560405184907fafcad72499f0ef2939e2cda92ec941e5177084b2479ff274455187b7ec5fdfa29061057a9086908690611608565b5f81815260026020526040812080546001600160a01b03166107fc576040516307145c5f60e11b815260040160405180910390fd5b50505f9081526003602052604090205490565b5f82815260026020526040812080546001600160a01b0316610844576040516307145c5f60e11b815260040160405180910390fd5b5f848152600360205260409020548310610871576040516307e0eec960e31b815260040160405180910390fd5b5f84815260036020526040902080548490811061089057610890611636565b905f5260205f2090600402015f01549150505b92915050565b5f81815260026020526040902080546001600160a01b03166108de576040516307145c5f60e11b815260040160405180910390fd5b80600401544211610902576040516359bfb80360e11b815260040160405180910390fd5b600781015460ff16156109285760405163475a253560e01b815260040160405180910390fd5b600a8101546001600160a01b031661095357604051635048c2af60e11b815260040160405180910390fd5b5f8281526003602052604081205467ffffffffffffffff811115610979576109796113f9565b6040519080825280602002602001820160405280156109a2578160200160208202803683370190505b5090505f5b5f84815260036020526040902054811015610a2f575f8481526003602052604081208054839081106109db576109db611636565b5f918252602090912060049091020154600a850154909150610a079082906001600160a01b0316610f17565b5080838381518110610a1b57610a1b611636565b6020908102919091010152506001016109a7565b50600a820154604051639457033360e01b81525f916001600160a01b031690639457033390610a6290859060040161164a565b6020604051808303815f875af1158015610a7e573d5f803e3d5ffd5b505050506040513d601f19601f82011682018060405250810190610aa2919061168d565b905080604051602001610ab791815260200190565b604051602081830303815290604052836008019081610ad6919061148e565b5060078301805460ff1916600117905560405184907fafcad72499f0ef2939e2cda92ec941e5177084b2479ff274455187b7ec5fdfa29061057a9060088701906116a4565b5f85815260026020526040902080546001600160a01b0316610b50576040516307145c5f60e11b815260040160405180910390fd5b8060030154421015610b75576040516359bfb80360e11b815260040160405180910390fd5b8060040154421115610b9a576040516336b6b46d60e01b815260040160405180910390fd5b60058101545f8781526003602052604090205460ff90911611610bd057604051631047a77760e11b815260040160405180910390fd5b8060060154341015610bf557604051632b7786bd60e21b815260040160405180910390fd5b5f8590505f610c398287878080601f0160208091040260200160405190810160405280939291908181526020018383808284375f92019190915250610f2992505050565b9050610c458130610f17565b505f8881526003602081815260408084208151608081018352868152338185018181529382018b81523460608401908152845460018082018755868b52888b2095516004909202909501908155955186850180546001600160a01b0319166001600160a01b03909216919091179055905160028601555193860193909355948d90529290915290549091610cd89161172e565b6040518a907f4506ba9f0ddee0498eba47c77f72bbb49b911d70c03b36879667060a6c3d0b9e905f90a45050505050505050565b5f82815260026020526040902080546001600160a01b0316610d41576040516307145c5f60e11b815260040160405180910390fd5b80546001600160a01b03163314610d6b57604051635ec8235160e01b815260040160405180910390fd5b600a810180546001600160a01b0319166001600160a01b0384161790555f838152600360205260408120905b8154811015610dd357610dca828281548110610db557610db5611636565b905f5260205f2090600402015f015485610f17565b50600101610d97565b5050505050565b5f546001600160a01b03163314610e045760405163607e454560e11b815260040160405180910390fd5b5f80546001600160a01b0319166001600160a01b038316908117825560405190917f2c1c11af44aa5608f1dca38c00275c30ea091e02417d36e70e9a1538689c433d91a250565b5f8181526002602052604090208054606091906001600160a01b0316610e84576040516307145c5f60e11b815260040160405180910390fd5b806008018054610e939061140d565b80601f0160208091040260200160405190810160405280929190818152602001828054610ebf9061140d565b8015610f0a5780601f10610ee157610100808354040283529160200191610f0a565b820191905f5260205f20905b815481529060010190602001808311610eed57829003601f168201915b5050505050915050919050565b5f610f228383610f3d565b5090919050565b5f610f3683836005610fc6565b9392505050565b5f7f9e7b61f58c47dc699ac88507c4f5bb9f121c03808c5676a8078fe583e46497008054604051635ca4b5b160e11b8152600481018690526001600160a01b03858116602483015292935091169063b9496b62906044015f604051808303815f87803b158015610fab575f80fd5b505af1158015610fbd573d5f803e3d5ffd5b50505050505050565b7f9e7b61f58c47dc699ac88507c4f5bb9f121c03808c5676a8078fe583e46497015460405163045fc19560e11b81525f917f9e7b61f58c47dc699ac88507c4f5bb9f121c03808c5676a8078fe583e4649700916001600160a01b03909116906308bf832a9061103f908890339089908990600401611741565b6020604051808303815f875af115801561105b573d5f803e3d5ffd5b505050506040513d601f19601f8201168201806040525081019061107f919061168d565b8154604051630f8e573b60e21b8152600481018390523360248201529193506001600160a01b031690633e395cec906044015f604051808303815f87803b1580156110c8575f80fd5b505af11580156110da573d5f803e3d5ffd5b50505050509392505050565b80356001600160a01b03811681146110fc575f80fd5b919050565b5f805f805f805f60e0888a031215611117575f80fd5b611120886110e6565b965061112e602089016110e6565b955060408801359450606088013593506080880135925060a088013560ff81168114611158575f80fd5b8092505060c0880135905092959891949750929550565b5f805f60608486031215611181575f80fd5b83359250611191602085016110e6565b9150604084013590509250925092565b5f602082840312156111b1575f80fd5b5035919050565b5f81518084525f5b818110156111dc576020818501810151868301820152016111c0565b505f602082860101526020601f19601f83011685010191505092915050565b5f61016060018060a01b03808f168452808e1660208501528c60408501528b60608501528a608085015260ff8a1660a08501528860c085015287151560e08501528161010085015261124f828501886111b8565b925080861661012085015280851661014085015250509c9b505050505050505050505050565b5f8060408385031215611286575f80fd5b50508035926020909101359150565b5f8083601f8401126112a5575f80fd5b50813567ffffffffffffffff8111156112bc575f80fd5b6020830191508360208285010111156112d3575f80fd5b9250929050565b5f805f604084860312156112ec575f80fd5b83359250602084013567ffffffffffffffff811115611309575f80fd5b61131586828701611295565b9497909650939450505050565b5f805f805f60808688031215611336575f80fd5b8535945060208601359350604086013567ffffffffffffffff81111561135a575f80fd5b61136688828901611295565b96999598509660600135949350505050565b5f8060408385031215611389575f80fd5b82359150611399602084016110e6565b90509250929050565b5f602082840312156113b2575f80fd5b610f36826110e6565b602081525f610f3660208301846111b8565b634e487b7160e01b5f52601160045260245ffd5b5f600182016113f2576113f26113cd565b5060010190565b634e487b7160e01b5f52604160045260245ffd5b600181811c9082168061142157607f821691505b60208210810361143f57634e487b7160e01b5f52602260045260245ffd5b50919050565b601f82111561148957805f5260205f20601f840160051c8101602085101561146a5750805b601f840160051c820191505b81811015610dd3575f8155600101611476565b505050565b815167ffffffffffffffff8111156114a8576114a86113f9565b6114bc816114b6845461140d565b84611445565b602080601f8311600181146114ef575f84156114d85750858301515b5f19600386901b1c1916600185901b178555611546565b5f85815260208120601f198616915b8281101561151d578886015182559484019460019091019084016114fe565b508582101561153a57878501515f19600388901b60f8161c191681555b505060018460011b0185555b505050505050565b67ffffffffffffffff831115611566576115666113f9565b61157a83611574835461140d565b83611445565b5f601f8411600181146115ab575f85156115945750838201355b5f19600387901b1c1916600186901b178355610dd3565b5f83815260208120601f198716915b828110156115da57868501358255602094850194600190920191016115ba565b50868210156115f6575f1960f88860031b161c19848701351681555b505060018560011b0183555050505050565b60208152816020820152818360408301375f818301604090810191909152601f909201601f19160101919050565b634e487b7160e01b5f52603260045260245ffd5b602080825282518282018190525f9190848201906040850190845b8181101561168157835183529284019291840191600101611665565b50909695505050505050565b5f6020828403121561169d575f80fd5b5051919050565b5f60208083525f84546116b68161140d565b806020870152604060018084165f81146116d757600181146116f357611720565b60ff19851660408a0152604084151560051b8a01019550611720565b895f5260205f205f5b858110156117175781548b82018601529083019088016116fc565b8a016040019650505b509398975050505050505050565b818103818111156108a3576108a36113cd565b8481526001600160a01b03841660208201526080604082018190525f9061176a908301856111b8565b90506054831061178857634e487b7160e01b5f52602160045260245ffd5b8260608301529594505050505056fea26469706673582212203983b9054090953443a8d1778d9ad71636687cf2b55c304a26fee71d5d9aa13f64736f6c63430008180033",
  "linkReferences": {},
  "deployedLinkReferences": {}
}